{
  "contractName": "T3chcoin",
  "abi": [
    {
      "constant": true,
      "inputs": [],
      "name": "name",
      "outputs": [
        {
          "name": "",
          "type": "bytes32"
        }
      ],
      "payable": false,
      "stateMutability": "view",
      "type": "function"
    },
    {
      "constant": true,
      "inputs": [
        {
          "name": "newSocialId",
          "type": "bytes32"
        }
      ],
      "name": "isInSocialIds",
      "outputs": [
        {
          "name": "",
          "type": "bool"
        }
      ],
      "payable": false,
      "stateMutability": "view",
      "type": "function"
    },
    {
      "constant": false,
      "inputs": [
        {
          "name": "userId",
          "type": "bytes32"
        },
        {
          "name": "userName",
          "type": "bytes32"
        },
        {
          "name": "socialId",
          "type": "bytes32"
        }
      ],
      "name": "addUser",
      "outputs": [],
      "payable": false,
      "stateMutability": "nonpayable",
      "type": "function"
    },
    {
      "constant": true,
      "inputs": [
        {
          "name": "itemId",
          "type": "bytes32"
        }
      ],
      "name": "getItemDetail",
      "outputs": [
        {
          "name": "",
          "type": "bytes32"
        },
        {
          "name": "",
          "type": "uint256"
        }
      ],
      "payable": false,
      "stateMutability": "view",
      "type": "function"
    },
    {
      "constant": false,
      "inputs": [
        {
          "name": "socialId",
          "type": "bytes32"
        },
        {
          "name": "messageType",
          "type": "uint8"
        }
      ],
      "name": "increaseSocialType",
      "outputs": [],
      "payable": false,
      "stateMutability": "nonpayable",
      "type": "function"
    },
    {
      "constant": true,
      "inputs": [],
      "name": "getSocialIdsCount",
      "outputs": [
        {
          "name": "",
          "type": "uint256"
        }
      ],
      "payable": false,
      "stateMutability": "view",
      "type": "function"
    },
    {
      "constant": true,
      "inputs": [
        {
          "name": "userId",
          "type": "bytes32"
        }
      ],
      "name": "getUserProfileById",
      "outputs": [
        {
          "name": "",
          "type": "bytes32"
        },
        {
          "name": "",
          "type": "bytes32"
        },
        {
          "name": "",
          "type": "bytes32"
        },
        {
          "name": "",
          "type": "uint256"
        },
        {
          "name": "",
          "type": "uint256"
        }
      ],
      "payable": false,
      "stateMutability": "view",
      "type": "function"
    },
    {
      "constant": true,
      "inputs": [
        {
          "name": "userId",
          "type": "bytes32"
        },
        {
          "name": "socialId",
          "type": "bytes32"
        }
      ],
      "name": "isSocialInUser",
      "outputs": [
        {
          "name": "",
          "type": "bool"
        }
      ],
      "payable": false,
      "stateMutability": "view",
      "type": "function"
    },
    {
      "constant": true,
      "inputs": [
        {
          "name": "userId",
          "type": "bytes32"
        }
      ],
      "name": "balanceOf",
      "outputs": [
        {
          "name": "",
          "type": "uint256"
        }
      ],
      "payable": false,
      "stateMutability": "view",
      "type": "function"
    },
    {
      "constant": true,
      "inputs": [
        {
          "name": "socialId",
          "type": "bytes32"
        }
      ],
      "name": "getSocialProfileById",
      "outputs": [
        {
          "name": "",
          "type": "bytes32"
        },
        {
          "name": "",
          "type": "uint256"
        },
        {
          "name": "",
          "type": "uint256"
        },
        {
          "name": "",
          "type": "uint256"
        },
        {
          "name": "",
          "type": "uint256"
        }
      ],
      "payable": false,
      "stateMutability": "view",
      "type": "function"
    },
    {
      "constant": false,
      "inputs": [
        {
          "name": "socialId",
          "type": "bytes32"
        }
      ],
      "name": "addSocial",
      "outputs": [],
      "payable": false,
      "stateMutability": "nonpayable",
      "type": "function"
    },
    {
      "constant": true,
      "inputs": [],
      "name": "owner",
      "outputs": [
        {
          "name": "",
          "type": "address"
        }
      ],
      "payable": false,
      "stateMutability": "view",
      "type": "function"
    },
    {
      "constant": true,
      "inputs": [
        {
          "name": "newUserId",
          "type": "bytes32"
        }
      ],
      "name": "isInUserIds",
      "outputs": [
        {
          "name": "",
          "type": "bool"
        }
      ],
      "payable": false,
      "stateMutability": "view",
      "type": "function"
    },
    {
      "constant": true,
      "inputs": [
        {
          "name": "resultCount",
          "type": "uint256"
        }
      ],
      "name": "getTopSocials",
      "outputs": [
        {
          "name": "",
          "type": "bytes32[]"
        }
      ],
      "payable": false,
      "stateMutability": "view",
      "type": "function"
    },
    {
      "constant": false,
      "inputs": [
        {
          "name": "userId",
          "type": "bytes32"
        },
        {
          "name": "socialId",
          "type": "bytes32"
        }
      ],
      "name": "addSocialInUser",
      "outputs": [],
      "payable": false,
      "stateMutability": "nonpayable",
      "type": "function"
    },
    {
      "constant": false,
      "inputs": [
        {
          "name": "userId",
          "type": "bytes32"
        },
        {
          "name": "itemId",
          "type": "bytes32"
        }
      ],
      "name": "buyItem",
      "outputs": [],
      "payable": false,
      "stateMutability": "nonpayable",
      "type": "function"
    },
    {
      "constant": true,
      "inputs": [],
      "name": "getCatalog",
      "outputs": [
        {
          "name": "",
          "type": "bytes32[]"
        }
      ],
      "payable": false,
      "stateMutability": "view",
      "type": "function"
    },
    {
      "constant": false,
      "inputs": [
        {
          "name": "socialId",
          "type": "bytes32"
        }
      ],
      "name": "rewardTokensFromSocialId",
      "outputs": [],
      "payable": false,
      "stateMutability": "nonpayable",
      "type": "function"
    },
    {
      "constant": false,
      "inputs": [
        {
          "name": "socialId",
          "type": "bytes32"
        }
      ],
      "name": "rewardTokensFromNewUser",
      "outputs": [],
      "payable": false,
      "stateMutability": "nonpayable",
      "type": "function"
    },
    {
      "constant": true,
      "inputs": [
        {
          "name": "userId",
          "type": "bytes32"
        }
      ],
      "name": "getUserItemsById",
      "outputs": [
        {
          "name": "",
          "type": "bytes32[]"
        }
      ],
      "payable": false,
      "stateMutability": "view",
      "type": "function"
    },
    {
      "constant": false,
      "inputs": [
        {
          "name": "userId",
          "type": "bytes32"
        },
        {
          "name": "userName",
          "type": "bytes32"
        },
        {
          "name": "statusId",
          "type": "uint256"
        },
        {
          "name": "socialId",
          "type": "bytes32"
        }
      ],
      "name": "updateUser",
      "outputs": [],
      "payable": false,
      "stateMutability": "nonpayable",
      "type": "function"
    },
    {
      "constant": true,
      "inputs": [
        {
          "name": "resultCount",
          "type": "uint256"
        }
      ],
      "name": "getTopUsers",
      "outputs": [
        {
          "name": "",
          "type": "bytes32[]"
        }
      ],
      "payable": false,
      "stateMutability": "view",
      "type": "function"
    },
    {
      "constant": false,
      "inputs": [
        {
          "name": "socialId",
          "type": "bytes32"
        },
        {
          "name": "message",
          "type": "bytes32"
        },
        {
          "name": "messageTypeIndex",
          "type": "uint256"
        }
      ],
      "name": "addSocialMessage",
      "outputs": [],
      "payable": false,
      "stateMutability": "nonpayable",
      "type": "function"
    },
    {
      "constant": false,
      "inputs": [
        {
          "name": "socialId",
          "type": "bytes32"
        },
        {
          "name": "userId",
          "type": "bytes32"
        }
      ],
      "name": "assignSocialToUser",
      "outputs": [],
      "payable": false,
      "stateMutability": "nonpayable",
      "type": "function"
    },
    {
      "inputs": [
        {
          "name": "platformName",
          "type": "bytes32"
        }
      ],
      "payable": false,
      "stateMutability": "nonpayable",
      "type": "constructor"
    },
    {
      "anonymous": false,
      "inputs": [
        {
          "indexed": false,
          "name": "socialId",
          "type": "bytes32"
        },
        {
          "indexed": false,
          "name": "message",
          "type": "bytes32"
        },
        {
          "indexed": false,
          "name": "messageTypeIndex",
          "type": "uint256"
        }
      ],
      "name": "NewMessageEvent",
      "type": "event"
    }
  ],
  "bytecode": "0x6060604052606060405190810160405280600060028111156200001e57fe5b60028111156200002a57fe5b8152602001600160028111156200003d57fe5b60028111156200004957fe5b81526020016002808111156200005b57fe5b60028111156200006757fe5b81525060009060036200007c92919062000247565b50606060405190810160405280600060028111156200009757fe5b6002811115620000a357fe5b815260200160016002811115620000b657fe5b6002811115620000c257fe5b8152602001600280811115620000d457fe5b6002811115620000e057fe5b8152506001906003620000f5929190620002fe565b5034156200010257600080fd5b6040516020806200214183398101604052808051906020019091905050806003816000191690555032600260006101000a81548173ffffffffffffffffffffffffffffffffffffffff021916908373ffffffffffffffffffffffffffffffffffffffff1602179055506200018b600a620001926401000000000262001be2176401000000009004565b5062000472565b600080600091505b8263ffffffff168263ffffffff1610156200024257600b8054806001018281620001c59190620003b5565b916000526020600020900160008463ffffffff1660010290919091509060001916905550600a60008363ffffffff166001026000191660001916815260200190815260200160002090508163ffffffff166001028160000181600019169055508163ffffffff16816001018190555081806001019250506200019a565b505050565b82805482825590600052602060002090601f01602090048101928215620002eb5791602002820160005b83821115620002ba57835183826101000a81548160ff021916908360028111156200029857fe5b0217905550926020019260010160208160000104928301926001030262000271565b8015620002e95782816101000a81549060ff0219169055600101602081600001049283019260010302620002ba565b505b509050620002fa9190620003e4565b5090565b82805482825590600052602060002090601f01602090048101928215620003a25791602002820160005b838211156200037157835183826101000a81548160ff021916908360028111156200034f57fe5b0217905550926020019260010160208160000104928301926001030262000328565b8015620003a05782816101000a81549060ff021916905560010160208160000104928301926001030262000371565b505b509050620003b1919062000417565b5090565b815481835581811511620003df57818360005260206000209182019101620003de91906200044a565b5b505050565b6200041491905b808211156200041057600081816101000a81549060ff021916905550600101620003eb565b5090565b90565b6200044791905b808211156200044357600081816101000a81549060ff0219169055506001016200041e565b5090565b90565b6200046f91905b808211156200046b57600081600090555060010162000451565b5090565b90565b611cbf80620004826000396000f30060606040526004361061013e576000357c0100000000000000000000000000000000000000000000000000000000900463ffffffff16806306fdde03146101435780630a229217146101745780630c19b7c9146101b35780631395f14a146101f457806344934e531461023e57806344dd5859146102715780635366b2011461029a57806364fec748146103095780636c7f1542146103555780636fb1a1da14610390578063834524eb146103ef5780638da5cb5b146104165780638eb8e4b11461046b5780638ee29b75146104aa5780639784b0fc14610522578063c0b71ee314610556578063c0bf3e231461058a578063c5ec9245146105f4578063d94aea991461061b578063d957b36814610642578063dd65aeae146106be578063de75aa6c14610708578063e5bda0e714610780578063f81d990d146107bd575b600080fd5b341561014e57600080fd5b6101566107f1565b60405180826000191660001916815260200191505060405180910390f35b341561017f57600080fd5b6101996004808035600019169060200190919050506107f7565b604051808215151515815260200191505060405180910390f35b34156101be57600080fd5b6101f26004808035600019169060200190919080356000191690602001909190803560001916906020019091905050610857565b005b34156101ff57600080fd5b61021960048080356000191690602001909190505061093f565b6040518083600019166000191681526020018281526020019250505060405180910390f35b341561024957600080fd5b61026f60048080356000191690602001909190803560ff16906020019091905050610975565b005b341561027c57600080fd5b610284610a9a565b6040518082815260200191505060405180910390f35b34156102a557600080fd5b6102bf600480803560001916906020019091905050610aa7565b604051808660001916600019168152602001856000191660001916815260200184600019166000191681526020018381526020018281526020019550505050505060405180910390f35b341561031457600080fd5b61033b60048080356000191690602001909190803560001916906020019091905050610b3c565b604051808215151515815260200191505060405180910390f35b341561036057600080fd5b61037a600480803560001916906020019091905050610bc1565b6040518082815260200191505060405180910390f35b341561039b57600080fd5b6103b5600480803560001916906020019091905050610be6565b6040518086600019166000191681526020018581526020018481526020018381526020018281526020019550505050505060405180910390f35b34156103fa57600080fd5b610414600480803560001916906020019091905050610c9c565b005b341561042157600080fd5b610429610d33565b604051808273ffffffffffffffffffffffffffffffffffffffff1673ffffffffffffffffffffffffffffffffffffffff16815260200191505060405180910390f35b341561047657600080fd5b610490600480803560001916906020019091905050610d59565b604051808215151515815260200191505060405180910390f35b34156104b557600080fd5b6104cb6004808035906020019091905050610db9565b6040518080602001828103825283818151815260200191508051906020019060200280838360005b8381101561050e5780820151818401526020810190506104f3565b505050509050019250505060405180910390f35b341561052d57600080fd5b610554600480803560001916906020019091908035600019169060200190919050506111dc565b005b341561056157600080fd5b61058860048080356000191690602001909190803560001916906020019091905050611250565b005b341561059557600080fd5b61059d611316565b6040518080602001828103825283818151815260200191508051906020019060200280838360005b838110156105e05780820151818401526020810190506105c5565b505050509050019250505060405180910390f35b34156105ff57600080fd5b610619600480803560001916906020019091905050611378565b005b341561062657600080fd5b6106406004808035600019169060200190919050506113ef565b005b341561064d57600080fd5b61066760048080356000191690602001909190505061145f565b6040518080602001828103825283818151815260200191508051906020019060200280838360005b838110156106aa57808201518184015260208101905061068f565b505050509050019250505060405180910390f35b34156106c957600080fd5b61070660048080356000191690602001909190803560001916906020019091908035906020019091908035600019169060200190919050506114dc565b005b341561071357600080fd5b6107296004808035906020019091905050611580565b6040518080602001828103825283818151815260200191508051906020019060200280838360005b8381101561076c578082015181840152602081019050610751565b505050509050019250505060405180910390f35b341561078b57600080fd5b6107bb600480803560001916906020019091908035600019169060200190919080359060200190919050506117e1565b005b34156107c857600080fd5b6107ef600480803560001916906020019091908035600019169060200190919050506119bc565b005b60035481565b600080600090505b60068054905081101561084c57826000191660068281548110151561082057fe5b90600052602060002090015460001916141561083f5760019150610851565b80806001019150506107ff565b600091505b50919050565b600061086284610d59565b1515610939576008600085600019166000191681526020019081526020016000209050838160000181600019169055508281600101816000191690555060018160030160006101000a81548160ff021916908360028111156108c057fe5b02179055508060040180548060010182816108db9190611a06565b9160005260206000209001600084909190915090600019169055506009805480600101828161090a9190611a06565b91600052602060002090016000869091909150906000191690555061092f82856119bc565b610938826113ef565b5b50505050565b6000806000600a600085600019166000191681526020019081526020016000209050806000015481600101549250925050915091565b6000600281111561098257fe5b81600281111561098e57fe5b14156109c75760056000836000191660001916815260200190815260200160002060030160008154809291906001019190505550610a68565b600160028111156109d457fe5b8160028111156109e057fe5b1415610a195760056000836000191660001916815260200190815260200160002060040160008154809291906001019190505550610a67565b600280811115610a2557fe5b816002811115610a3157fe5b1415610a6657600560008360001916600019168152602001908152602001600020600501600081548092919060010191905055505b5b5b600560008360001916600019168152602001908152602001600020600201600081548092919060010191905055505050565b6000600680549050905090565b6000806000806000856008600088600019166000191681526020019081526020016000206001015460086000896000191660001916815260200190815260200160002060020154600460008a6000191660001916815260200190815260200160002054600760008b60001916600019168152602001908152602001600020805490509450945094509450945091939590929450565b60008060006008600086600019166000191681526020019081526020016000209150600090505b8160040180549050811015610bb45783600019168260040182815481101515610b8857fe5b906000526020600020900154600019161415610ba75760019250610bb9565b8080600101915050610b63565b600092505b505092915050565b6000600460008360001916600019168152602001908152602001600020549050919050565b6000806000806000600560008760001916600019168152602001908152602001600020600001546005600088600019166000191681526020019081526020016000206002015460056000896000191660001916815260200190815260200160002060030154600560008a6000191660001916815260200190815260200160002060040154600560008b60001916600019168152602001908152602001600020600501549450945094509450945091939590929450565b6000610ca7826107f7565b1515610d2f576005600083600019166000191681526020019081526020016000209050818160000181600019169055506000816002018190555060008160030181905550600081600401819055506000816005018190555060068054806001018281610d139190611a06565b9160005260206000209001600084909190915090600019169055505b5050565b600260009054906101000a900473ffffffffffffffffffffffffffffffffffffffff1681565b600080600090505b600980549050811015610dae578260001916600982815481101515610d8257fe5b906000526020600020900154600019161415610da15760019150610db3565b8080600101915050610d61565b600091505b50919050565b610dc1611a32565b610dc9611a46565b6000806000610dd6611a5a565b610dde611a32565b60008089604051805910610def5750595b908082528060200260200182016040528015610e2557816020015b610e12611aa4565b815260200190600190039081610e0a5790505b509750600096505b6006805490508710156110fa5760056000600689815481101515610e4d57fe5b90600052602060002090015460001916600019168152602001908152602001600020955089871015610f90578560e060405190810160405290816000820154600019166000191681526020016001820154600019166000191681526020016002820154815260200160038201548152602001600482015481526020016005820154815260200160068201805480602002602001604051908101604052809291908181526020016000905b82821015610f6857838290600052602060002090600202016040805190810160405290816000820154600019166000191681526020016001820160009054906101000a900460ff166002811115610f4a57fe5b6002811115610f5557fe5b8152505081526020019060010190610ef7565b50505050815250508888815181101515610f7e57fe5b906020019060200201819052506110ed565b600094505b87518510156110ec578785815181101515610fac57fe5b9060200190602002015193508560020154846040015110156110df578560e060405190810160405290816000820154600019166000191681526020016001820154600019166000191681526020016002820154815260200160038201548152602001600482015481526020016005820154815260200160068201805480602002602001604051908101604052809291908181526020016000905b828210156110b757838290600052602060002090600202016040805190810160405290816000820154600019166000191681526020016001820160009054906101000a900460ff16600281111561109957fe5b60028111156110a457fe5b8152505081526020019060010190611046565b505050508152505088868151811015156110cd57fe5b906020019060200201819052506110ec565b8480600101955050610f95565b5b8680600101975050610e2d565b896040518059106111085750595b908082528060200260200182016040525092506006805490508a1161112d5789611134565b6006805490505b9150600090505b818110156111cc57600188510381101561119657878181518110151561115d57fe5b9060200190602002015160000151838281518110151561117957fe5b9060200190602002019060001916908160001916815250506111bf565b600083828151811015156111a657fe5b9060200190602002019060001916908160001916815250505b808060010191505061113b565b8298505050505050505050919050565b6111e582610d59565b15156111f057600080fd5b6111fa8282610b3c565b151561124c5760086000836000191660001916815260200190815260200160002060040180548060010182816112309190611a06565b9160005260206000209001600083909190915090600019169055505b5050565b600080600a60008460001916600019168152602001908152602001600020915081600101546004600086600019166000191681526020019081526020016000205411156113105781600101546004600086600019166000191681526020019081526020016000206000828254039250508190555060076000856000191660001916815260200190815260200160002090508080548060010182816112f49190611a06565b9160005260206000209001600085909190915090600019169055505b50505050565b61131e611a32565b600b80548060200260200160405190810160405280929190818152602001828054801561136e57602002820191906000526020600020905b81546000191681526020019060010190808311611356575b5050505050905090565b6000611383826107f7565b156113eb57600560008360001916600019168152602001908152602001600020905060006001028160010154600019161415156113ea5760046000826001015460001916600019168152602001908152602001600020600081548092919060010191905055505b5b5050565b60006113fa826107f7565b1561145b576005600083600019166000191681526020019081526020016000209050600060010281600101546000191614151561145a57806002015460046000836001015460001916600019168152602001908152602001600020819055505b5b5050565b611467611a32565b6007600083600019166000191681526020019081526020016000208054806020026020016040519081016040528092919081815260200182805480156114d057602002820191906000526020600020905b815460001916815260200190600101908083116114b8575b50505050509050919050565b60006114e785610d59565b15156114f257600080fd5b60086000866000191660001916815260200190815260200160002090508381600101816000191690555060018381548110151561152b57fe5b90600052602060002090602091828204019190069054906101000a900460ff168160030160006101000a81548160ff0219169083600281111561156a57fe5b021790555061157985836111dc565b5050505050565b611588611a32565b611590611aee565b600080600061159d611b02565b60006115a7611b02565b6115af611a32565b6000808b6040518059106115c05750595b9080825280602002602001820160405280156115f657816020015b6115e3611b1f565b8152602001906001900390816115db5790505b509950600098505b6009805490508910156116fd5760098981548110151561161a57fe5b90600052602060002090015497506004600089600019166000191681526020019081526020016000205496508b89101561168b57898981518110151561165c57fe5b9060200190602002015195508686602001818152505087866000019060001916908160001916815250506116f0565b600094505b89518510156116ef5789858151811015156116a757fe5b90602001906020020151935086846020015110156116e2578684602001818152505087846000019060001916908160001916815250506116ef565b8480600101955050611690565b5b88806001019950506115fe565b8b60405180591061170b5750595b908082528060200260200182016040525092506009805490508c11611730578b611737565b6009805490505b9150600090505b818110156117cf5760018a510381101561179957898181518110151561176057fe5b9060200190602002015160000151838281518110151561177c57fe5b9060200190602002019060001916908160001916815250506117c2565b600083828151811015156117a957fe5b9060200190602002019060001916908160001916815250505b808060010191505061173e565b829a5050505050505050505050919050565b6000806000838154811015156117f357fe5b90600052602060002090602091828204019190069054906101000a900460ff16915061181e856107f7565b15156118a657600560008660001916600019168152602001908152602001600020905084816000018160001916905550600081600201819055506000816003018190555060008160040181905550600081600501819055506006805480600101828161188a9190611a06565b9160005260206000209001600087909190915090600019169055505b6118b08583610975565b6118b985611378565b60056000866000191660001916815260200190815260200160002060060180548060010182816118e99190611b3c565b9160005260206000209060020201600060408051908101604052808860001916815260200186600281111561191a57fe5b81525090919091506000820151816000019060001916905560208201518160010160006101000a81548160ff0219169083600281111561195657fe5b02179055505050507f140f6f5b8d87c4fc7907ed0a399cf18679a050bdbb0c13c2fcbc0e52b1f257cb8585856040518084600019166000191681526020018360001916600019168152602001828152602001935050505060405180910390a15050505050565b60006119c7836107f7565b15156119d7576119d683610c9c565b5b600560008460001916600019168152602001908152602001600020905081816001018160001916905550505050565b815481835581811511611a2d57818360005260206000209182019101611a2c9190611b6e565b5b505050565b602060405190810160405280600081525090565b602060405190810160405280600081525090565b60e060405190810160405280600080191681526020016000801916815260200160008152602001600081526020016000815260200160008152602001611a9e611b93565b81525090565b60e060405190810160405280600080191681526020016000801916815260200160008152602001600081526020016000815260200160008152602001611ae8611b93565b81525090565b602060405190810160405280600081525090565b604080519081016040528060008019168152602001600081525090565b604080519081016040528060008019168152602001600081525090565b815481835581811511611b6957600202816002028360005260206000209182019101611b689190611ba7565b5b505050565b611b9091905b80821115611b8c576000816000905550600101611b74565b5090565b90565b602060405190810160405280600081525090565b611bdf91905b80821115611bdb576000808201600090556001820160006101000a81549060ff021916905550600201611bad565b5090565b90565b600080600091505b8263ffffffff168263ffffffff161015611c8e57600b8054806001018281611c129190611a06565b916000526020600020900160008463ffffffff1660010290919091509060001916905550600a60008363ffffffff166001026000191660001916815260200190815260200160002090508163ffffffff166001028160000181600019169055508163ffffffff1681600101819055508180600101925050611bea565b5050505600a165627a7a723058208ed8baf7c75ebe42d8f600ba0d5c1a48a6ff48f081879eaf87943f2fe3d699240029",
  "source": "pragma solidity 0.4.18;\n\ncontract T3chcoin {\n\n  enum MessageTypes {Twit, TwitLike, TwitRetweet }\n  MessageTypes[] private idToMessageTypes = [ MessageTypes.Twit, MessageTypes.TwitLike, MessageTypes.TwitRetweet];\n  enum Status {Pending, Active, Blocked }\n  Status[] private idToStatus = [ Status.Pending, Status.Active, Status.Blocked];\n  \n  struct ItemDetail {\n    bytes32 description;\n    uint256 price;\n  }\n\n  struct BalanceDetail {\n    bytes32 userId;\n    uint256 tokens;\n  }\n  \n  struct MessageDetail {\n    bytes32 message;\n    MessageTypes messageType;\n  }\n\n  struct SocialProfile {\n    bytes32 socialId;\n    bytes32 userId;\n    uint totalAll;\n    uint totalTwit;\n    uint totalTwitLike;\n    uint totalTwitRetweet;\n    MessageDetail[] messages;\n  }\n\n  struct UserProfile {\n    bytes32 userId;\n    bytes32 userName;\n    bytes32 avatar;    \n    Status status;\n    bytes32[] socials;\n  }\n\n  address public owner;\n  bytes32 public name;\n  mapping(bytes32 => uint256) balances;\n\n  mapping(bytes32 => SocialProfile) socials;\n  bytes32[] socialIds;\n\n  mapping(bytes32 => bytes32[]) userItems;\n  mapping(bytes32 => UserProfile) users;\n  bytes32[] userIds;\n\n  mapping(bytes32 => ItemDetail) catalog;  \n  bytes32[] itemIds;\n  \n  event NewMessageEvent(bytes32 socialId, bytes32 message, uint messageTypeIndex);\n\n  function T3chcoin(bytes32 platformName) public {\n    name = platformName;\n    owner = tx.origin;\n    initCatalog(10);\n  }\n  \n  function isInSocialIds(bytes32 newSocialId) public view returns (bool) {\n    for (uint i = 0; i < socialIds.length; i++) {\n      if (socialIds[i] == newSocialId) {\n        return true;\n      }\n    }\n    return false;\n  }\n\n  function isInUserIds(bytes32 newUserId) public view returns (bool) {\n    for (uint i = 0; i < userIds.length; i++) {\n      if (userIds[i] == newUserId) {\n        return true;\n      }\n    }\n    return false;\n  }\n\n  function isSocialInUser(bytes32 userId, bytes32 socialId) public view returns (bool) {\n    var newUserProfile = users[userId];\n    for (uint i = 0; i < newUserProfile.socials.length ; i++) {\n      if (newUserProfile.socials[i] == socialId) {\n        return true;\n      }\n    }\n    return false;\n  }\n  \n  function getSocialIdsCount() public view returns(uint) {\n    return socialIds.length;\n  }\n\n  function balanceOf(bytes32 userId) public view returns(uint) {\n    return balances[userId];\n  }\n\n  function getCatalog() public view returns( bytes32[] ) {\n    return itemIds;\n  }\n\n  function getItemDetail(bytes32 itemId) public view returns(bytes32, uint) {\n    var item = catalog[itemId];\n    return (item.description, item.price);\n  }\n\n  function initCatalog(uint32 catalogSize) private {  \n    for (uint32 i = 0; i < catalogSize; i++) {\n      itemIds.push(bytes32(i));\n      var itemCatalog = catalog[bytes32(i)];\n      itemCatalog.description = bytes32(i);\n      itemCatalog.price = i;\n    }\n  }\n\n  function addSocial(bytes32 socialId) public {\n    if (!isInSocialIds(socialId)) {\n      var newSocialProfile = socials[socialId];\n      newSocialProfile.socialId = socialId;\n      newSocialProfile.totalAll = 0;\n      newSocialProfile.totalTwit = 0;\n      newSocialProfile.totalTwitLike = 0;\n      newSocialProfile.totalTwitRetweet = 0;\n      socialIds.push(socialId);\n    }\n  }\n\n  function addSocialMessage(bytes32 socialId, bytes32 message, uint messageTypeIndex) public {\n    MessageTypes mt = idToMessageTypes[messageTypeIndex];\n    if (!isInSocialIds(socialId)) {\n      var newSocialProfile = socials[socialId];\n      newSocialProfile.socialId = socialId;\n      newSocialProfile.totalAll = 0;\n      newSocialProfile.totalTwit = 0;\n      newSocialProfile.totalTwitLike = 0;\n      newSocialProfile.totalTwitRetweet = 0;\n      socialIds.push(socialId);\n    }\n    increaseSocialType(socialId, mt);\n    rewardTokensFromSocialId(socialId);\n    socials[socialId].messages.push(MessageDetail(message,mt));\n    NewMessageEvent(socialId, message, messageTypeIndex);\n  }\n\n  function assignSocialToUser(bytes32 socialId, bytes32 userId) public {\n    if (!isInSocialIds(socialId)) {\n      addSocial(socialId);\n    } \n    var newSocialProfile = socials[socialId];\n    newSocialProfile.userId = userId;\n  }\n\n  function increaseSocialType(bytes32 socialId, MessageTypes messageType) public {\n    if (messageType == MessageTypes.Twit) {\n      socials[socialId].totalTwit++;\n    } else if (messageType == MessageTypes.TwitLike) {\n      socials[socialId].totalTwitLike++;\n    } else if (messageType == MessageTypes.TwitRetweet) {\n      socials[socialId].totalTwitRetweet++;\n    }\n    socials[socialId].totalAll++;\n  }\n\n  function rewardTokensFromSocialId(bytes32 socialId) public {\n    if (isInSocialIds(socialId)) {\n      var socialProfile = socials[socialId];\n      if (socialProfile.userId != 0) {\n        balances[socialProfile.userId]++;\n      }\n    }\n  }\n\n  function rewardTokensFromNewUser(bytes32 socialId) public {\n    if (isInSocialIds(socialId)) {\n      var socialProfile = socials[socialId];\n      if (socialProfile.userId != 0) {\n        balances[socialProfile.userId] = socialProfile.totalAll;\n      }\n    }\n  }\n\n  function getUserProfileById(bytes32 userId) public view returns( bytes32, bytes32, bytes32, uint, uint ) {\n    return (userId,\n            users[userId].userName,\n            users[userId].avatar,\n            balances[userId],\n            userItems[userId].length);\n  }\n\n  function getUserItemsById(bytes32 userId) public view returns( bytes32[] ) {\n    return userItems[userId];\n  }\n\n  function getSocialProfileById(bytes32 socialId) public view returns( bytes32, uint, uint, uint, uint ) {\n    return (bytes32(socials[socialId].socialId),\n            socials[socialId].totalAll,\n            socials[socialId].totalTwit,\n            socials[socialId].totalTwitLike,\n            socials[socialId].totalTwitRetweet);\n  }\n\n  //return array with top N social profile\n  function getTopSocials(uint resultCount) public view returns( bytes32[] ) {\n    var result = new SocialProfile[](resultCount);\n    for (uint i = 0; i < socialIds.length; i++) {\n      var checkItem = socials[socialIds[i]];\n      if (i < resultCount) {\n        result[i] = checkItem;\n      } else {\n        for (uint j = 0; j < result.length; j++) {\n          var item = result[j];\n          if (item.totalAll < checkItem.totalAll) {\n            result[j] = checkItem;\n            break;\n          }\n        }\n      }\n    }\n    var flatResult = new bytes32[](resultCount);\n    var socialListCount = resultCount > socialIds.length ? socialIds.length : resultCount;\n    for (uint z = 0; z < socialListCount; z++) {\n      if (z < (result.length - 1) ) {\n        flatResult[z] = result[z].socialId;\n      } else {\n        flatResult[z] = \"\";\n      }\n    }\n    return flatResult;\n  }\n\n  function addUser(bytes32 userId, bytes32 userName, bytes32 socialId) public {\n    if (!isInUserIds(userId)) {\n      var newUserProfile = users[userId];\n      newUserProfile.userId = userId;\n      newUserProfile.userName = userName;\n      newUserProfile.status = Status.Active;\n      newUserProfile.socials.push(socialId);\n      userIds.push(userId);\n      assignSocialToUser(socialId, userId);\n      rewardTokensFromNewUser(socialId);\n    }\n  }\n\n  function buyItem(bytes32 userId, bytes32 itemId) public {\n    var itemCatalog = catalog[itemId];\n    if (balances[userId] > itemCatalog.price) {\n      balances[userId] -= itemCatalog.price;\n      var myItems = userItems[userId];\n      myItems.push(itemId);\n    }\n  }\n\n  function addSocialInUser(bytes32 userId, bytes32 socialId) public {\n    require(isInUserIds(userId));\n    if (!(isSocialInUser(userId, socialId))) {\n      users[userId].socials.push(socialId);\n    }\n  }\n\n  function updateUser(bytes32 userId, bytes32 userName, uint statusId, bytes32 socialId) public {\n    require(isInUserIds(userId));\n    var newUserProfile = users[userId];\n    newUserProfile.userName = userName;\n    newUserProfile.status = idToStatus[statusId];\n    addSocialInUser(userId, socialId);\n  }\n\n  //return array with top N user tokens\n  function getTopUsers(uint resultCount) public view returns( bytes32[] ) {\n    var result = new BalanceDetail[](resultCount);\n    for (uint i = 0; i < userIds.length; i++) {\n      var userId = userIds[i];\n      var tokenBalance = balances[userId];\n      if (i < resultCount) {\n        var balanceDetail = result[i];\n        balanceDetail.tokens = tokenBalance;\n        balanceDetail.userId = userId;\n      } else {\n        for (uint j = 0; j < result.length; j++) {\n          var item = result[j];\n          if (item.tokens < tokenBalance) {\n            item.tokens = tokenBalance;\n            item.userId = userId;\n            break;\n          }\n        }\n      }\n    }\n    var flatResult = new bytes32[](resultCount);\n    var userListCount = resultCount > userIds.length ? userIds.length : resultCount;\n    for (uint z = 0; z < userListCount; z++) {\n      if (z < (result.length - 1) ) {\n        flatResult[z] = result[z].userId;\n      } else {\n        flatResult[z] = \"\";\n      }\n    }\n    return flatResult;\n  }\n\n\n}",
  "sourcePath": "/Users/rubenchavarri/projects/t3chcoin/t3chcoin-base/contracts/T3chcoin.sol",
  "compiler": {
    "name": "solc",
    "version": "0.4.18+commit.9cf6e910.Emscripten.clang"
  },
  "schemaVersion": "1.0.1",
  "updatedAt": "2018-02-10T23:36:36.355Z"
}