{
  "contractName": "T3chcoin",
  "abi": [
    {
      "constant": true,
      "inputs": [],
      "name": "name",
      "outputs": [
        {
          "name": "",
          "type": "bytes32"
        }
      ],
      "payable": false,
      "stateMutability": "view",
      "type": "function"
    },
    {
      "constant": true,
      "inputs": [
        {
          "name": "newSocialId",
          "type": "bytes32"
        }
      ],
      "name": "isInSocialIds",
      "outputs": [
        {
          "name": "",
          "type": "bool"
        }
      ],
      "payable": false,
      "stateMutability": "view",
      "type": "function"
    },
    {
      "constant": false,
      "inputs": [
        {
          "name": "userId",
          "type": "bytes32"
        },
        {
          "name": "userName",
          "type": "bytes32"
        },
        {
          "name": "socialId",
          "type": "bytes32"
        }
      ],
      "name": "addUser",
      "outputs": [],
      "payable": false,
      "stateMutability": "nonpayable",
      "type": "function"
    },
    {
      "constant": true,
      "inputs": [
        {
          "name": "itemId",
          "type": "bytes32"
        }
      ],
      "name": "getItemDetail",
      "outputs": [
        {
          "name": "",
          "type": "bytes32"
        },
        {
          "name": "",
          "type": "uint256"
        }
      ],
      "payable": false,
      "stateMutability": "view",
      "type": "function"
    },
    {
      "constant": false,
      "inputs": [
        {
          "name": "socialId",
          "type": "bytes32"
        },
        {
          "name": "messageType",
          "type": "uint8"
        }
      ],
      "name": "increaseSocialType",
      "outputs": [],
      "payable": false,
      "stateMutability": "nonpayable",
      "type": "function"
    },
    {
      "constant": true,
      "inputs": [],
      "name": "getSocialIdsCount",
      "outputs": [
        {
          "name": "",
          "type": "uint256"
        }
      ],
      "payable": false,
      "stateMutability": "view",
      "type": "function"
    },
    {
      "constant": true,
      "inputs": [
        {
          "name": "userId",
          "type": "bytes32"
        }
      ],
      "name": "getUserProfileById",
      "outputs": [
        {
          "name": "",
          "type": "bytes32"
        },
        {
          "name": "",
          "type": "bytes32"
        },
        {
          "name": "",
          "type": "bytes32"
        },
        {
          "name": "",
          "type": "bytes32"
        },
        {
          "name": "",
          "type": "uint256"
        },
        {
          "name": "",
          "type": "uint256"
        }
      ],
      "payable": false,
      "stateMutability": "view",
      "type": "function"
    },
    {
      "constant": true,
      "inputs": [
        {
          "name": "userId",
          "type": "bytes32"
        },
        {
          "name": "socialId",
          "type": "bytes32"
        }
      ],
      "name": "isSocialInUser",
      "outputs": [
        {
          "name": "",
          "type": "bool"
        }
      ],
      "payable": false,
      "stateMutability": "view",
      "type": "function"
    },
    {
      "constant": false,
      "inputs": [
        {
          "name": "userId",
          "type": "bytes32"
        },
        {
          "name": "userName",
          "type": "bytes32"
        },
        {
          "name": "avatar",
          "type": "bytes32"
        },
        {
          "name": "selectedItem",
          "type": "bytes32"
        }
      ],
      "name": "updateUser",
      "outputs": [],
      "payable": false,
      "stateMutability": "nonpayable",
      "type": "function"
    },
    {
      "constant": true,
      "inputs": [
        {
          "name": "userId",
          "type": "bytes32"
        }
      ],
      "name": "balanceOf",
      "outputs": [
        {
          "name": "",
          "type": "uint256"
        }
      ],
      "payable": false,
      "stateMutability": "view",
      "type": "function"
    },
    {
      "constant": true,
      "inputs": [
        {
          "name": "socialId",
          "type": "bytes32"
        }
      ],
      "name": "getSocialProfileById",
      "outputs": [
        {
          "name": "",
          "type": "bytes32"
        },
        {
          "name": "",
          "type": "uint256"
        },
        {
          "name": "",
          "type": "uint256"
        },
        {
          "name": "",
          "type": "uint256"
        },
        {
          "name": "",
          "type": "uint256"
        }
      ],
      "payable": false,
      "stateMutability": "view",
      "type": "function"
    },
    {
      "constant": false,
      "inputs": [
        {
          "name": "socialId",
          "type": "bytes32"
        }
      ],
      "name": "addSocial",
      "outputs": [],
      "payable": false,
      "stateMutability": "nonpayable",
      "type": "function"
    },
    {
      "constant": true,
      "inputs": [],
      "name": "owner",
      "outputs": [
        {
          "name": "",
          "type": "address"
        }
      ],
      "payable": false,
      "stateMutability": "view",
      "type": "function"
    },
    {
      "constant": true,
      "inputs": [
        {
          "name": "newUserId",
          "type": "bytes32"
        }
      ],
      "name": "isInUserIds",
      "outputs": [
        {
          "name": "",
          "type": "bool"
        }
      ],
      "payable": false,
      "stateMutability": "view",
      "type": "function"
    },
    {
      "constant": true,
      "inputs": [
        {
          "name": "resultCount",
          "type": "uint256"
        }
      ],
      "name": "getTopSocials",
      "outputs": [
        {
          "name": "",
          "type": "bytes32[]"
        }
      ],
      "payable": false,
      "stateMutability": "view",
      "type": "function"
    },
    {
      "constant": false,
      "inputs": [
        {
          "name": "userId",
          "type": "bytes32"
        },
        {
          "name": "socialId",
          "type": "bytes32"
        }
      ],
      "name": "addSocialInUser",
      "outputs": [],
      "payable": false,
      "stateMutability": "nonpayable",
      "type": "function"
    },
    {
      "constant": false,
      "inputs": [
        {
          "name": "userId",
          "type": "bytes32"
        },
        {
          "name": "itemId",
          "type": "bytes32"
        }
      ],
      "name": "buyItem",
      "outputs": [],
      "payable": false,
      "stateMutability": "nonpayable",
      "type": "function"
    },
    {
      "constant": true,
      "inputs": [],
      "name": "getCatalog",
      "outputs": [
        {
          "name": "",
          "type": "bytes32[]"
        }
      ],
      "payable": false,
      "stateMutability": "view",
      "type": "function"
    },
    {
      "constant": false,
      "inputs": [
        {
          "name": "socialId",
          "type": "bytes32"
        }
      ],
      "name": "rewardTokensFromSocialId",
      "outputs": [],
      "payable": false,
      "stateMutability": "nonpayable",
      "type": "function"
    },
    {
      "constant": false,
      "inputs": [
        {
          "name": "socialId",
          "type": "bytes32"
        }
      ],
      "name": "rewardTokensFromNewUser",
      "outputs": [],
      "payable": false,
      "stateMutability": "nonpayable",
      "type": "function"
    },
    {
      "constant": true,
      "inputs": [
        {
          "name": "userId",
          "type": "bytes32"
        }
      ],
      "name": "getUserItemsById",
      "outputs": [
        {
          "name": "",
          "type": "bytes32[]"
        }
      ],
      "payable": false,
      "stateMutability": "view",
      "type": "function"
    },
    {
      "constant": true,
      "inputs": [
        {
          "name": "resultCount",
          "type": "uint256"
        }
      ],
      "name": "getTopUsers",
      "outputs": [
        {
          "name": "",
          "type": "bytes32[]"
        }
      ],
      "payable": false,
      "stateMutability": "view",
      "type": "function"
    },
    {
      "constant": false,
      "inputs": [
        {
          "name": "socialId",
          "type": "bytes32"
        },
        {
          "name": "message",
          "type": "bytes32"
        },
        {
          "name": "messageTypeIndex",
          "type": "uint256"
        }
      ],
      "name": "addSocialMessage",
      "outputs": [],
      "payable": false,
      "stateMutability": "nonpayable",
      "type": "function"
    },
    {
      "constant": false,
      "inputs": [
        {
          "name": "socialId",
          "type": "bytes32"
        },
        {
          "name": "userId",
          "type": "bytes32"
        }
      ],
      "name": "assignSocialToUser",
      "outputs": [],
      "payable": false,
      "stateMutability": "nonpayable",
      "type": "function"
    },
    {
      "inputs": [
        {
          "name": "platformName",
          "type": "bytes32"
        }
      ],
      "payable": false,
      "stateMutability": "nonpayable",
      "type": "constructor"
    },
    {
      "anonymous": false,
      "inputs": [
        {
          "indexed": false,
          "name": "socialId",
          "type": "bytes32"
        },
        {
          "indexed": false,
          "name": "message",
          "type": "bytes32"
        },
        {
          "indexed": false,
          "name": "messageTypeIndex",
          "type": "uint256"
        }
      ],
      "name": "NewMessageEvent",
      "type": "event"
    }
  ],
  "bytecode": "0x6060604052606060405190810160405280600060028111156200001e57fe5b60028111156200002a57fe5b8152602001600160028111156200003d57fe5b60028111156200004957fe5b81526020016002808111156200005b57fe5b60028111156200006757fe5b81525060009060036200007c92919062000247565b50606060405190810160405280600060028111156200009757fe5b6002811115620000a357fe5b815260200160016002811115620000b657fe5b6002811115620000c257fe5b8152602001600280811115620000d457fe5b6002811115620000e057fe5b8152506001906003620000f5929190620002fe565b5034156200010257600080fd5b604051602080620020bf83398101604052808051906020019091905050806003816000191690555032600260006101000a81548173ffffffffffffffffffffffffffffffffffffffff021916908373ffffffffffffffffffffffffffffffffffffffff1602179055506200018b600a620001926401000000000262001b60176401000000009004565b5062000472565b600080600091505b8263ffffffff168263ffffffff1610156200024257600b8054806001018281620001c59190620003b5565b916000526020600020900160008463ffffffff1660010290919091509060001916905550600a60008363ffffffff166001026000191660001916815260200190815260200160002090508163ffffffff166001028160000181600019169055508163ffffffff16816001018190555081806001019250506200019a565b505050565b82805482825590600052602060002090601f01602090048101928215620002eb5791602002820160005b83821115620002ba57835183826101000a81548160ff021916908360028111156200029857fe5b0217905550926020019260010160208160000104928301926001030262000271565b8015620002e95782816101000a81549060ff0219169055600101602081600001049283019260010302620002ba565b505b509050620002fa9190620003e4565b5090565b82805482825590600052602060002090601f01602090048101928215620003a25791602002820160005b838211156200037157835183826101000a81548160ff021916908360028111156200034f57fe5b0217905550926020019260010160208160000104928301926001030262000328565b8015620003a05782816101000a81549060ff021916905560010160208160000104928301926001030262000371565b505b509050620003b1919062000417565b5090565b815481835581811511620003df57818360005260206000209182019101620003de91906200044a565b5b505050565b6200041491905b808211156200041057600081816101000a81549060ff021916905550600101620003eb565b5090565b90565b6200044791905b808211156200044357600081816101000a81549060ff0219169055506001016200041e565b5090565b90565b6200046f91905b808211156200046b57600081600090555060010162000451565b5090565b90565b611c3d80620004826000396000f30060606040526004361061013e576000357c0100000000000000000000000000000000000000000000000000000000900463ffffffff16806306fdde03146101435780630a229217146101745780630c19b7c9146101b35780631395f14a146101f457806344934e531461023e57806344dd5859146102715780635366b2011461029a57806364fec7481461031857806368bf33f8146103645780636c7f1542146103b25780636fb1a1da146103ed578063834524eb1461044c5780638da5cb5b146104735780638eb8e4b1146104c85780638ee29b75146105075780639784b0fc1461057f578063c0b71ee3146105b3578063c0bf3e23146105e7578063c5ec924514610651578063d94aea9914610678578063d957b3681461069f578063de75aa6c1461071b578063e5bda0e714610793578063f81d990d146107d0575b600080fd5b341561014e57600080fd5b610156610804565b60405180826000191660001916815260200191505060405180910390f35b341561017f57600080fd5b61019960048080356000191690602001909190505061080a565b604051808215151515815260200191505060405180910390f35b34156101be57600080fd5b6101f2600480803560001916906020019091908035600019169060200190919080356000191690602001909190505061086a565b005b34156101ff57600080fd5b610219600480803560001916906020019091905050610952565b6040518083600019166000191681526020018281526020019250505060405180910390f35b341561024957600080fd5b61026f60048080356000191690602001909190803560ff16906020019091905050610988565b005b341561027c57600080fd5b610284610aad565b6040518082815260200191505060405180910390f35b34156102a557600080fd5b6102bf600480803560001916906020019091905050610aba565b604051808760001916600019168152602001866000191660001916815260200185600019166000191681526020018460001916600019168152602001838152602001828152602001965050505050505060405180910390f35b341561032357600080fd5b61034a60048080356000191690602001909190803560001916906020019091905050610b71565b604051808215151515815260200191505060405180910390f35b341561036f57600080fd5b6103b0600480803560001916906020019091908035600019169060200190919080356000191690602001909190803560001916906020019091905050610bf6565b005b34156103bd57600080fd5b6103d7600480803560001916906020019091905050610c57565b6040518082815260200191505060405180910390f35b34156103f857600080fd5b610412600480803560001916906020019091905050610c7c565b6040518086600019166000191681526020018581526020018481526020018381526020018281526020019550505050505060405180910390f35b341561045757600080fd5b610471600480803560001916906020019091905050610d32565b005b341561047e57600080fd5b610486610dc9565b604051808273ffffffffffffffffffffffffffffffffffffffff1673ffffffffffffffffffffffffffffffffffffffff16815260200191505060405180910390f35b34156104d357600080fd5b6104ed600480803560001916906020019091905050610def565b604051808215151515815260200191505060405180910390f35b341561051257600080fd5b6105286004808035906020019091905050610e4f565b6040518080602001828103825283818151815260200191508051906020019060200280838360005b8381101561056b578082015181840152602081019050610550565b505050509050019250505060405180910390f35b341561058a57600080fd5b6105b160048080356000191690602001909190803560001916906020019091905050611272565b005b34156105be57600080fd5b6105e5600480803560001916906020019091908035600019169060200190919050506112e6565b005b34156105f257600080fd5b6105fa611338565b6040518080602001828103825283818151815260200191508051906020019060200280838360005b8381101561063d578082015181840152602081019050610622565b505050509050019250505060405180910390f35b341561065c57600080fd5b61067660048080356000191690602001909190505061139a565b005b341561068357600080fd5b61069d600480803560001916906020019091905050611411565b005b34156106aa57600080fd5b6106c4600480803560001916906020019091905050611481565b6040518080602001828103825283818151815260200191508051906020019060200280838360005b838110156107075780820151818401526020810190506106ec565b505050509050019250505060405180910390f35b341561072657600080fd5b61073c60048080359060200190919050506114fe565b6040518080602001828103825283818151815260200191508051906020019060200280838360005b8381101561077f578082015181840152602081019050610764565b505050509050019250505060405180910390f35b341561079e57600080fd5b6107ce6004808035600019169060200190919080356000191690602001909190803590602001909190505061175f565b005b34156107db57600080fd5b6108026004808035600019169060200190919080356000191690602001909190505061193a565b005b60035481565b600080600090505b60068054905081101561085f57826000191660068281548110151561083357fe5b9060005260206000209001546000191614156108525760019150610864565b8080600101915050610812565b600091505b50919050565b600061087584610def565b151561094c576008600085600019166000191681526020019081526020016000209050838160000181600019169055508281600101816000191690555060018160040160006101000a81548160ff021916908360028111156108d357fe5b02179055508060050180548060010182816108ee9190611984565b9160005260206000209001600084909190915090600019169055506009805480600101828161091d9190611984565b916000526020600020900160008690919091509060001916905550610942828561193a565b61094b82611411565b5b50505050565b6000806000600a600085600019166000191681526020019081526020016000209050806000015481600101549250925050915091565b6000600281111561099557fe5b8160028111156109a157fe5b14156109da5760056000836000191660001916815260200190815260200160002060030160008154809291906001019190505550610a7b565b600160028111156109e757fe5b8160028111156109f357fe5b1415610a2c5760056000836000191660001916815260200190815260200160002060040160008154809291906001019190505550610a7a565b600280811115610a3857fe5b816002811115610a4457fe5b1415610a7957600560008360001916600019168152602001908152602001600020600501600081548092919060010191905055505b5b5b600560008360001916600019168152602001908152602001600020600201600081548092919060010191905055505050565b6000600680549050905090565b6000806000806000808660086000896000191660001916815260200190815260200160002060010154600860008a6000191660001916815260200190815260200160002060020154600860008b6000191660001916815260200190815260200160002060030154600460008c6000191660001916815260200190815260200160002054600760008d600019166000191681526020019081526020016000208054905095509550955095509550955091939550919395565b60008060006008600086600019166000191681526020019081526020016000209150600090505b8160050180549050811015610be95783600019168260050182815481101515610bbd57fe5b906000526020600020900154600019161415610bdc5760019250610bee565b8080600101915050610b98565b600092505b505092915050565b6000610c0185610def565b1515610c0c57600080fd5b60086000866000191660001916815260200190815260200160002090508381600101816000191690555082816002018160001916905550818160030181600019169055505050505050565b6000600460008360001916600019168152602001908152602001600020549050919050565b6000806000806000600560008760001916600019168152602001908152602001600020600001546005600088600019166000191681526020019081526020016000206002015460056000896000191660001916815260200190815260200160002060030154600560008a6000191660001916815260200190815260200160002060040154600560008b60001916600019168152602001908152602001600020600501549450945094509450945091939590929450565b6000610d3d8261080a565b1515610dc5576005600083600019166000191681526020019081526020016000209050818160000181600019169055506000816002018190555060008160030181905550600081600401819055506000816005018190555060068054806001018281610da99190611984565b9160005260206000209001600084909190915090600019169055505b5050565b600260009054906101000a900473ffffffffffffffffffffffffffffffffffffffff1681565b600080600090505b600980549050811015610e44578260001916600982815481101515610e1857fe5b906000526020600020900154600019161415610e375760019150610e49565b8080600101915050610df7565b600091505b50919050565b610e576119b0565b610e5f6119c4565b6000806000610e6c6119d8565b610e746119b0565b60008089604051805910610e855750595b908082528060200260200182016040528015610ebb57816020015b610ea8611a22565b815260200190600190039081610ea05790505b509750600096505b6006805490508710156111905760056000600689815481101515610ee357fe5b90600052602060002090015460001916600019168152602001908152602001600020955089871015611026578560e060405190810160405290816000820154600019166000191681526020016001820154600019166000191681526020016002820154815260200160038201548152602001600482015481526020016005820154815260200160068201805480602002602001604051908101604052809291908181526020016000905b82821015610ffe57838290600052602060002090600202016040805190810160405290816000820154600019166000191681526020016001820160009054906101000a900460ff166002811115610fe057fe5b6002811115610feb57fe5b8152505081526020019060010190610f8d565b5050505081525050888881518110151561101457fe5b90602001906020020181905250611183565b600094505b875185101561118257878581518110151561104257fe5b906020019060200201519350856002015484604001511015611175578560e060405190810160405290816000820154600019166000191681526020016001820154600019166000191681526020016002820154815260200160038201548152602001600482015481526020016005820154815260200160068201805480602002602001604051908101604052809291908181526020016000905b8282101561114d57838290600052602060002090600202016040805190810160405290816000820154600019166000191681526020016001820160009054906101000a900460ff16600281111561112f57fe5b600281111561113a57fe5b81525050815260200190600101906110dc565b5050505081525050888681518110151561116357fe5b90602001906020020181905250611182565b848060010195505061102b565b5b8680600101975050610ec3565b8960405180591061119e5750595b908082528060200260200182016040525092506006805490508a116111c357896111ca565b6006805490505b9150600090505b8181101561126257600188510381101561122c5787818151811015156111f357fe5b9060200190602002015160000151838281518110151561120f57fe5b906020019060200201906000191690816000191681525050611255565b6000838281518110151561123c57fe5b9060200190602002019060001916908160001916815250505b80806001019150506111d1565b8298505050505050505050919050565b61127b82610def565b151561128657600080fd5b6112908282610b71565b15156112e25760086000836000191660001916815260200190815260200160002060050180548060010182816112c69190611984565b9160005260206000209001600083909190915090600019169055505b5050565b600060076000846000191660001916815260200190815260200160002090508080548060010182816113189190611984565b916000526020600020900160008490919091509060001916905550505050565b6113406119b0565b600b80548060200260200160405190810160405280929190818152602001828054801561139057602002820191906000526020600020905b81546000191681526020019060010190808311611378575b5050505050905090565b60006113a58261080a565b1561140d576005600083600019166000191681526020019081526020016000209050600060010281600101546000191614151561140c5760046000826001015460001916600019168152602001908152602001600020600081548092919060010191905055505b5b5050565b600061141c8261080a565b1561147d576005600083600019166000191681526020019081526020016000209050600060010281600101546000191614151561147c57806002015460046000836001015460001916600019168152602001908152602001600020819055505b5b5050565b6114896119b0565b6007600083600019166000191681526020019081526020016000208054806020026020016040519081016040528092919081815260200182805480156114f257602002820191906000526020600020905b815460001916815260200190600101908083116114da575b50505050509050919050565b6115066119b0565b61150e611a6c565b600080600061151b611a80565b6000611525611a80565b61152d6119b0565b6000808b60405180591061153e5750595b90808252806020026020018201604052801561157457816020015b611561611a9d565b8152602001906001900390816115595790505b509950600098505b60098054905089101561167b5760098981548110151561159857fe5b90600052602060002090015497506004600089600019166000191681526020019081526020016000205496508b8910156116095789898151811015156115da57fe5b90602001906020020151955086866020018181525050878660000190600019169081600019168152505061166e565b600094505b895185101561166d57898581518110151561162557fe5b90602001906020020151935086846020015110156116605786846020018181525050878460000190600019169081600019168152505061166d565b848060010195505061160e565b5b888060010199505061157c565b8b6040518059106116895750595b908082528060200260200182016040525092506009805490508c116116ae578b6116b5565b6009805490505b9150600090505b8181101561174d5760018a51038110156117175789818151811015156116de57fe5b906020019060200201516000015183828151811015156116fa57fe5b906020019060200201906000191690816000191681525050611740565b6000838281518110151561172757fe5b9060200190602002019060001916908160001916815250505b80806001019150506116bc565b829a5050505050505050505050919050565b60008060008381548110151561177157fe5b90600052602060002090602091828204019190069054906101000a900460ff16915061179c8561080a565b15156118245760056000866000191660001916815260200190815260200160002090508481600001816000191690555060008160020181905550600081600301819055506000816004018190555060008160050181905550600680548060010182816118089190611984565b9160005260206000209001600087909190915090600019169055505b61182e8583610988565b6118378561139a565b60056000866000191660001916815260200190815260200160002060060180548060010182816118679190611aba565b9160005260206000209060020201600060408051908101604052808860001916815260200186600281111561189857fe5b81525090919091506000820151816000019060001916905560208201518160010160006101000a81548160ff021916908360028111156118d457fe5b02179055505050507f140f6f5b8d87c4fc7907ed0a399cf18679a050bdbb0c13c2fcbc0e52b1f257cb8585856040518084600019166000191681526020018360001916600019168152602001828152602001935050505060405180910390a15050505050565b60006119458361080a565b15156119555761195483610d32565b5b600560008460001916600019168152602001908152602001600020905081816001018160001916905550505050565b8154818355818115116119ab578183600052602060002091820191016119aa9190611aec565b5b505050565b602060405190810160405280600081525090565b602060405190810160405280600081525090565b60e060405190810160405280600080191681526020016000801916815260200160008152602001600081526020016000815260200160008152602001611a1c611b11565b81525090565b60e060405190810160405280600080191681526020016000801916815260200160008152602001600081526020016000815260200160008152602001611a66611b11565b81525090565b602060405190810160405280600081525090565b604080519081016040528060008019168152602001600081525090565b604080519081016040528060008019168152602001600081525090565b815481835581811511611ae757600202816002028360005260206000209182019101611ae69190611b25565b5b505050565b611b0e91905b80821115611b0a576000816000905550600101611af2565b5090565b90565b602060405190810160405280600081525090565b611b5d91905b80821115611b59576000808201600090556001820160006101000a81549060ff021916905550600201611b2b565b5090565b90565b600080600091505b8263ffffffff168263ffffffff161015611c0c57600b8054806001018281611b909190611984565b916000526020600020900160008463ffffffff1660010290919091509060001916905550600a60008363ffffffff166001026000191660001916815260200190815260200160002090508163ffffffff166001028160000181600019169055508163ffffffff1681600101819055508180600101925050611b68565b5050505600a165627a7a723058200b510ca45db53dda69cce63e8afc51e6a2f61ddc6816faccf51ac3f8d8d1be4e0029",
  "source": "pragma solidity 0.4.18;\n\ncontract T3chcoin {\n\n  enum MessageTypes {Twit, TwitLike, TwitRetweet }\n  MessageTypes[] private idToMessageTypes = [ MessageTypes.Twit, MessageTypes.TwitLike, MessageTypes.TwitRetweet];\n  enum Status {Pending, Active, Blocked }\n  Status[] private idToStatus = [ Status.Pending, Status.Active, Status.Blocked];\n  \n  struct ItemDetail {\n    bytes32 description;\n    uint256 price;\n  }\n\n  struct BalanceDetail {\n    bytes32 userId;\n    uint256 tokens;\n  }\n  \n  struct MessageDetail {\n    bytes32 message;\n    MessageTypes messageType;\n  }\n\n  struct SocialProfile {\n    bytes32 socialId;\n    bytes32 userId;\n    uint totalAll;\n    uint totalTwit;\n    uint totalTwitLike;\n    uint totalTwitRetweet;\n    MessageDetail[] messages;\n  }\n\n  struct UserProfile {\n    bytes32 userId;\n    bytes32 userName;\n    bytes32 avatar;\n    bytes32 selectedItem;\n    Status status;\n    bytes32[] socials;\n  }\n\n  address public owner;\n  bytes32 public name;\n  mapping(bytes32 => uint256) balances;\n\n  mapping(bytes32 => SocialProfile) socials;\n  bytes32[] socialIds;\n\n  mapping(bytes32 => bytes32[]) userItems;\n  mapping(bytes32 => UserProfile) users;\n  bytes32[] userIds;\n\n  mapping(bytes32 => ItemDetail) catalog;  \n  bytes32[] itemIds;\n  \n  event NewMessageEvent(bytes32 socialId, bytes32 message, uint messageTypeIndex);\n\n  function T3chcoin(bytes32 platformName) public {\n    name = platformName;\n    owner = tx.origin;\n    initCatalog(10);\n  }\n  \n  function isInSocialIds(bytes32 newSocialId) public view returns (bool) {\n    for (uint i = 0; i < socialIds.length; i++) {\n      if (socialIds[i] == newSocialId) {\n        return true;\n      }\n    }\n    return false;\n  }\n\n  function isInUserIds(bytes32 newUserId) public view returns (bool) {\n    for (uint i = 0; i < userIds.length; i++) {\n      if (userIds[i] == newUserId) {\n        return true;\n      }\n    }\n    return false;\n  }\n\n  function isSocialInUser(bytes32 userId, bytes32 socialId) public view returns (bool) {\n    var newUserProfile = users[userId];\n    for (uint i = 0; i < newUserProfile.socials.length ; i++) {\n      if (newUserProfile.socials[i] == socialId) {\n        return true;\n      }\n    }\n    return false;\n  }\n  \n  function getSocialIdsCount() public view returns(uint) {\n    return socialIds.length;\n  }\n\n  function balanceOf(bytes32 userId) public view returns(uint) {\n    return balances[userId];\n  }\n\n  function getCatalog() public view returns( bytes32[] ) {\n    return itemIds;\n  }\n\n  function getItemDetail(bytes32 itemId) public view returns(bytes32, uint) {\n    var item = catalog[itemId];\n    return (item.description, item.price);\n  }\n\n  function initCatalog(uint32 catalogSize) private {  \n    for (uint32 i = 0; i < catalogSize; i++) {\n      itemIds.push(bytes32(i));\n      var itemCatalog = catalog[bytes32(i)];\n      itemCatalog.description = bytes32(i);\n      itemCatalog.price = i;\n    }\n  }\n\n  function addSocial(bytes32 socialId) public {\n    if (!isInSocialIds(socialId)) {\n      var newSocialProfile = socials[socialId];\n      newSocialProfile.socialId = socialId;\n      newSocialProfile.totalAll = 0;\n      newSocialProfile.totalTwit = 0;\n      newSocialProfile.totalTwitLike = 0;\n      newSocialProfile.totalTwitRetweet = 0;\n      socialIds.push(socialId);\n    }\n  }\n\n  function addSocialMessage(bytes32 socialId, bytes32 message, uint messageTypeIndex) public {\n    MessageTypes mt = idToMessageTypes[messageTypeIndex];\n    if (!isInSocialIds(socialId)) {\n      var newSocialProfile = socials[socialId];\n      newSocialProfile.socialId = socialId;\n      newSocialProfile.totalAll = 0;\n      newSocialProfile.totalTwit = 0;\n      newSocialProfile.totalTwitLike = 0;\n      newSocialProfile.totalTwitRetweet = 0;\n      socialIds.push(socialId);\n    }\n    increaseSocialType(socialId, mt);\n    rewardTokensFromSocialId(socialId);\n    socials[socialId].messages.push(MessageDetail(message,mt));\n    NewMessageEvent(socialId, message, messageTypeIndex);\n  }\n\n  function assignSocialToUser(bytes32 socialId, bytes32 userId) public {\n    if (!isInSocialIds(socialId)) {\n      addSocial(socialId);\n    } \n    var newSocialProfile = socials[socialId];\n    newSocialProfile.userId = userId;\n  }\n\n  function increaseSocialType(bytes32 socialId, MessageTypes messageType) public {\n    if (messageType == MessageTypes.Twit) {\n      socials[socialId].totalTwit++;\n    } else if (messageType == MessageTypes.TwitLike) {\n      socials[socialId].totalTwitLike++;\n    } else if (messageType == MessageTypes.TwitRetweet) {\n      socials[socialId].totalTwitRetweet++;\n    }\n    socials[socialId].totalAll++;\n  }\n\n  function rewardTokensFromSocialId(bytes32 socialId) public {\n    if (isInSocialIds(socialId)) {\n      var socialProfile = socials[socialId];\n      if (socialProfile.userId != 0) {\n        balances[socialProfile.userId]++;\n      }\n    }\n  }\n\n  function rewardTokensFromNewUser(bytes32 socialId) public {\n    if (isInSocialIds(socialId)) {\n      var socialProfile = socials[socialId];\n      if (socialProfile.userId != 0) {\n        balances[socialProfile.userId] = socialProfile.totalAll;\n      }\n    }\n  }\n\n  function getUserProfileById(bytes32 userId) public view returns( bytes32, bytes32, bytes32, bytes32, uint, uint ) {\n    return (userId,\n            users[userId].userName,\n            users[userId].avatar,\n            users[userId].selectedItem,            \n            balances[userId],\n            userItems[userId].length);\n  }\n\n  function getUserItemsById(bytes32 userId) public view returns( bytes32[] ) {\n    return userItems[userId];\n  }\n\n  function getSocialProfileById(bytes32 socialId) public view returns( bytes32, uint, uint, uint, uint ) {\n    return (bytes32(socials[socialId].socialId),\n            socials[socialId].totalAll,\n            socials[socialId].totalTwit,\n            socials[socialId].totalTwitLike,\n            socials[socialId].totalTwitRetweet);\n  }\n\n  //return array with top N social profile\n  function getTopSocials(uint resultCount) public view returns( bytes32[] ) {\n    var result = new SocialProfile[](resultCount);\n    for (uint i = 0; i < socialIds.length; i++) {\n      var checkItem = socials[socialIds[i]];\n      if (i < resultCount) {\n        result[i] = checkItem;\n      } else {\n        for (uint j = 0; j < result.length; j++) {\n          var item = result[j];\n          if (item.totalAll < checkItem.totalAll) {\n            result[j] = checkItem;\n            break;\n          }\n        }\n      }\n    }\n    var flatResult = new bytes32[](resultCount);\n    var socialListCount = resultCount > socialIds.length ? socialIds.length : resultCount;\n    for (uint z = 0; z < socialListCount; z++) {\n      if (z < (result.length - 1) ) {\n        flatResult[z] = result[z].socialId;\n      } else {\n        flatResult[z] = \"\";\n      }\n    }\n    return flatResult;\n  }\n\n  function addUser(bytes32 userId, bytes32 userName, bytes32 socialId) public {\n    if (!isInUserIds(userId)) {\n      var newUserProfile = users[userId];\n      newUserProfile.userId = userId;\n      newUserProfile.userName = userName;\n      newUserProfile.status = Status.Active;\n      newUserProfile.socials.push(socialId);\n      userIds.push(userId);\n      assignSocialToUser(socialId, userId);\n      rewardTokensFromNewUser(socialId);\n    }\n  }\n\n  function buyItem(bytes32 userId, bytes32 itemId) public {\n    // var itemCatalog = catalog[itemId];\n    var myItems = userItems[userId];\n    myItems.push(itemId);\n    // if (balances[userId] > itemCatalog.price) {\n    //   balances[userId] -= itemCatalog.price;\n    //   var myItems = userItems[userId];\n    //   myItems.push(itemId);\n    // }\n  }\n\n  function addSocialInUser(bytes32 userId, bytes32 socialId) public {\n    require(isInUserIds(userId));\n    if (!(isSocialInUser(userId, socialId))) {\n      users[userId].socials.push(socialId);\n    }\n  }\n\n  function updateUser(bytes32 userId, bytes32 userName, bytes32 avatar, bytes32 selectedItem) public {\n    require(isInUserIds(userId));\n    var newUserProfile = users[userId];\n    newUserProfile.userName = userName;\n    newUserProfile.avatar = avatar;\n    newUserProfile.selectedItem = selectedItem;\n  }\n\n  //return array with top N user tokens\n  function getTopUsers(uint resultCount) public view returns( bytes32[] ) {\n    var result = new BalanceDetail[](resultCount);\n    for (uint i = 0; i < userIds.length; i++) {\n      var userId = userIds[i];\n      var tokenBalance = balances[userId];\n      if (i < resultCount) {\n        var balanceDetail = result[i];\n        balanceDetail.tokens = tokenBalance;\n        balanceDetail.userId = userId;\n      } else {\n        for (uint j = 0; j < result.length; j++) {\n          var item = result[j];\n          if (item.tokens < tokenBalance) {\n            item.tokens = tokenBalance;\n            item.userId = userId;\n            break;\n          }\n        }\n      }\n    }\n    var flatResult = new bytes32[](resultCount);\n    var userListCount = resultCount > userIds.length ? userIds.length : resultCount;\n    for (uint z = 0; z < userListCount; z++) {\n      if (z < (result.length - 1) ) {\n        flatResult[z] = result[z].userId;\n      } else {\n        flatResult[z] = \"\";\n      }\n    }\n    return flatResult;\n  }\n\n\n}",
  "sourcePath": "/Users/rubenchavarri/projects/t3chcoin/t3chcoin-base/contracts/T3chcoin.sol",
  "compiler": {
    "name": "solc",
    "version": "0.4.18+commit.9cf6e910.Emscripten.clang"
  },
  "schemaVersion": "1.0.1",
  "updatedAt": "2018-02-20T20:28:18.475Z"
}