{
  "contractName": "Voting",
  "abi": [
    {
      "constant": true,
      "inputs": [],
      "name": "getCandidates",
      "outputs": [
        {
          "name": "",
          "type": "bytes32[]"
        }
      ],
      "payable": false,
      "stateMutability": "view",
      "type": "function"
    },
    {
      "constant": false,
      "inputs": [
        {
          "name": "candidateName",
          "type": "bytes32"
        }
      ],
      "name": "addCandidate",
      "outputs": [],
      "payable": false,
      "stateMutability": "nonpayable",
      "type": "function"
    },
    {
      "constant": true,
      "inputs": [
        {
          "name": "candidate",
          "type": "bytes32"
        }
      ],
      "name": "totalVotesFor",
      "outputs": [
        {
          "name": "",
          "type": "uint8"
        }
      ],
      "payable": false,
      "stateMutability": "view",
      "type": "function"
    },
    {
      "constant": true,
      "inputs": [
        {
          "name": "candidate",
          "type": "bytes32"
        }
      ],
      "name": "validCandidate",
      "outputs": [
        {
          "name": "",
          "type": "bool"
        }
      ],
      "payable": false,
      "stateMutability": "view",
      "type": "function"
    },
    {
      "constant": false,
      "inputs": [
        {
          "name": "index",
          "type": "uint256"
        }
      ],
      "name": "removeCandidateByIndex",
      "outputs": [
        {
          "name": "",
          "type": "bytes32[]"
        }
      ],
      "payable": false,
      "stateMutability": "nonpayable",
      "type": "function"
    },
    {
      "constant": true,
      "inputs": [
        {
          "name": "",
          "type": "bytes32"
        }
      ],
      "name": "votesReceived",
      "outputs": [
        {
          "name": "",
          "type": "uint8"
        }
      ],
      "payable": false,
      "stateMutability": "view",
      "type": "function"
    },
    {
      "constant": false,
      "inputs": [
        {
          "name": "candidateName",
          "type": "bytes32"
        }
      ],
      "name": "removeCandidate",
      "outputs": [
        {
          "name": "",
          "type": "bytes32[]"
        }
      ],
      "payable": false,
      "stateMutability": "nonpayable",
      "type": "function"
    },
    {
      "constant": true,
      "inputs": [
        {
          "name": "",
          "type": "uint256"
        }
      ],
      "name": "candidateList",
      "outputs": [
        {
          "name": "",
          "type": "bytes32"
        }
      ],
      "payable": false,
      "stateMutability": "view",
      "type": "function"
    },
    {
      "constant": false,
      "inputs": [
        {
          "name": "candidate",
          "type": "bytes32"
        }
      ],
      "name": "voteForCandidate",
      "outputs": [
        {
          "name": "",
          "type": "uint8"
        }
      ],
      "payable": false,
      "stateMutability": "nonpayable",
      "type": "function"
    },
    {
      "constant": true,
      "inputs": [
        {
          "name": "values",
          "type": "bytes32[]"
        },
        {
          "name": "value",
          "type": "bytes32"
        }
      ],
      "name": "indexOf",
      "outputs": [
        {
          "name": "",
          "type": "uint256"
        }
      ],
      "payable": false,
      "stateMutability": "pure",
      "type": "function"
    },
    {
      "inputs": [
        {
          "name": "candidateNames",
          "type": "bytes32[]"
        }
      ],
      "payable": false,
      "stateMutability": "nonpayable",
      "type": "constructor"
    }
  ],
  "bytecode": "0x6060604052341561000f57600080fd5b604051610a5f380380610a5f833981016040528080518201919050508060019080519060200190610041929190610048565b50506100c0565b82805482825590600052602060002090810192821561008a579160200282015b82811115610089578251829060001916905591602001919060010190610068565b5b509050610097919061009b565b5090565b6100bd91905b808211156100b95760008160009055506001016100a1565b5090565b90565b610990806100cf6000396000f3006060604052600436106100a4576000357c0100000000000000000000000000000000000000000000000000000000900463ffffffff16806306a49fce146100a9578063230d6ed8146101135780632f265cf71461013a578063392e66781461017b57806353c0a5ef146101ba5780637021939f1461023257806389bb617c14610273578063b13c744b146102ef578063cc9ab2671461032e578063e9c003d21461036f575b600080fd5b34156100b457600080fd5b6100bc6103ea565b6040518080602001828103825283818151815260200191508051906020019060200280838360005b838110156100ff5780820151818401526020810190506100e4565b505050509050019250505060405180910390f35b341561011e57600080fd5b61013860048080356000191690602001909190505061044c565b005b341561014557600080fd5b61015f60048080356000191690602001909190505061047e565b604051808260ff1660ff16815260200191505060405180910390f35b341561018657600080fd5b6101a06004808035600019169060200190919050506104c3565b604051808215151515815260200191505060405180910390f35b34156101c557600080fd5b6101db6004808035906020019091905050610523565b6040518080602001828103825283818151815260200191508051906020019060200280838360005b8381101561021e578082015181840152602081019050610203565b505050509050019250505060405180910390f35b341561023d57600080fd5b61025760048080356000191690602001909190505061068e565b604051808260ff1660ff16815260200191505060405180910390f35b341561027e57600080fd5b6102986004808035600019169060200190919050506106ae565b6040518080602001828103825283818151815260200191508051906020019060200280838360005b838110156102db5780820151818401526020810190506102c0565b505050509050019250505060405180910390f35b34156102fa57600080fd5b61031060048080359060200190919050506107b3565b60405180826000191660001916815260200191505060405180910390f35b341561033957600080fd5b6103536004808035600019169060200190919050506107d7565b604051808260ff1660ff16815260200191505060405180910390f35b341561037a57600080fd5b6103d460048080359060200190820180359060200190808060200260200160405190810160405280939291908181526020018383602002808284378201915050505050509190803560001916906020019091905050610839565b6040518082815260200191505060405180910390f35b6103f2610880565b600180548060200260200160405190810160405280929190818152602001828054801561044257602002820191906000526020600020905b8154600019168152602001906001019080831161042a575b5050505050905090565b600180548060010182816104609190610894565b91600052602060002090016000839091909150906000191690555050565b6000610489826104c3565b151561049457600080fd5b600080836000191660001916815260200190815260200160002060009054906101000a900460ff169050919050565b600080600090505b6001805490508110156105185782600019166001828154811015156104ec57fe5b90600052602060002090015460001916141561050b576001915061051d565b80806001019150506104cb565b600091505b50919050565b61052b610880565b60006001805490508310151561059757600180548060200260200160405190810160405280929190818152602001828054801561058b57602002820191906000526020600020905b81546000191681526020019060010190808311610573575b50505050509150610688565b8290505b60018080549050038110156105f65760018082018154811015156105bb57fe5b9060005260206000209001546001828154811015156105d657fe5b90600052602060002090018160001916905550808060010191505061059b565b60018080805490500381548110151561060b57fe5b906000526020600020900160009055600180548091906001900361062f91906108c0565b50600180548060200260200160405190810160405280929190818152602001828054801561068057602002820191906000526020600020905b81546000191681526020019060010190808311610668575b505050505091505b50919050565b60006020528060005260406000206000915054906101000a900460ff1681565b6106b6610880565b60006106c1836104c3565b15156106cc57600080fd5b61072a600180548060200260200160405190810160405280929190818152602001828054801561071f57602002820191906000526020600020905b81546000191681526020019060010190808311610707575b505050505084610839565b90506000811015156107565761073f81610523565b600190805190602001906107549291906108ec565b505b60018054806020026020016040519081016040528092919081815260200182805480156107a657602002820191906000526020600020905b8154600019168152602001906001019080831161078e575b5050505050915050919050565b6001818154811015156107c257fe5b90600052602060002090016000915090505481565b60006107e2826104c3565b15156107ed57600080fd5b6001600080846000191660001916815260200190815260200160002060008282829054906101000a900460ff160192506101000a81548160ff021916908360ff16021790559050919050565b600080600090505b8260001916848281518110151561085457fe5b9060200190602002015160001916141515610876578080600101915050610841565b8091505092915050565b602060405190810160405280600081525090565b8154818355818115116108bb578183600052602060002091820191016108ba919061093f565b5b505050565b8154818355818115116108e7578183600052602060002091820191016108e6919061093f565b5b505050565b82805482825590600052602060002090810192821561092e579160200282015b8281111561092d57825182906000191690559160200191906001019061090c565b5b50905061093b919061093f565b5090565b61096191905b8082111561095d576000816000905550600101610945565b5090565b905600a165627a7a723058206e5e12c55cc5d2841e15efaa6a3b890a9b573e37d803c38d1ce072e0791674460029",
  "source": "pragma solidity ^0.4.17;\n\ncontract Voting {\n\n  mapping (bytes32 => uint8) public votesReceived;\n  bytes32[] public candidateList;\n\n  function Voting(bytes32[] candidateNames) public {\n    candidateList = candidateNames;\n  }\n\n  function getCandidates() public view returns(bytes32[]) {\n    return candidateList;\n  }\n\n  function addCandidate(bytes32 candidateName) public {\n    candidateList.push(candidateName);\n  }\n\n  function removeCandidate(bytes32 candidateName) public returns(bytes32[]) {\n      require(validCandidate(candidateName));\n      var index = indexOf(candidateList, candidateName);\n      if (index >= 0) {\n        candidateList = removeCandidateByIndex(index);\n      }\n      return candidateList;\n  }\n\n  function removeCandidateByIndex(uint index) public returns(bytes32[]) {\n    if (index >= candidateList.length) {\n      return candidateList;\n    }\n    for (uint i = index; i < candidateList.length-1; i++) {\n        candidateList[i] = candidateList[i+1];\n    }\n    delete candidateList[candidateList.length-1];\n    candidateList.length--;\n    return candidateList;\n  }\n\n  function totalVotesFor(bytes32 candidate) public view returns (uint8) {\n    require(validCandidate(candidate));\n    return votesReceived[candidate];\n  }\n\n  function voteForCandidate(bytes32 candidate) public returns (uint8) {\n    require(validCandidate(candidate));\n    return votesReceived[candidate] += 1;\n  }\n\n  \n  function indexOf(bytes32[] values, bytes32 value) public pure returns(uint) {\n    uint i = 0;\n    while (values[i] != value) {\n      i++;\n    }\n    return i;\n  }\n\n  function validCandidate(bytes32 candidate) public view returns (bool) {\n    for (uint i = 0; i < candidateList.length; i++) {\n      if (candidateList[i] == candidate) {\n        return true;\n      }\n    }\n    return false;\n   }\n\n}",
  "sourcePath": "/Users/rubenchavarri/projects/t3chcoin/t3chcoin-base/contracts/Voting.sol",
  "compiler": {
    "name": "solc",
    "version": "0.4.18+commit.9cf6e910.Emscripten.clang"
  },
  "schemaVersion": "1.0.1",
  "updatedAt": "2018-01-30T23:00:50.281Z"
}